:020000040800F2
:1000000000280020751D0008C51D0008C51D00083A
:10001000C51D0008C51D0008C51D00080000000022
:10002000000000000000000000000000C51D0008E6
:10003000C51D000800000000C51D00086518000867
:10004000C51D0008C51D0008C51D0008C51D000808
:10005000C51D0008C51D0008490A0008750A0008EA
:10006000A10A0008CD0A0008F90A0008C51D000809
:10007000C51D0008C51D0008C51D0008C51D0008D8
:10008000C51D0008C51D0008C51D0008C51D0008C8
:10009000C51D0008C51D0008C51D0008250B00086A
:1000A000C51D0008C51D0008C51D0008C51D0008A8
:1000B000C51D0008C51D0008C51D0008C51D000898
:1000C000C51D0008C51D0008C51D0008B51700089E
:1000D000C51D0008411A0008651A0008C51D000862
:1000E000810B0008C51D000800000000C51D0008A8
:1000F000C51D0008C51D0008C51D0008C51D000858
:10010000C51D0008C51D0008C51D0008C51D000847
:10011000C51D0008C51D0008C51D0008C51D000837
:10012000C51D0008C51D0008C51D0008C51D000827
:1001300010B5054C237833B9044B13B10448AFF321
:1001400000800123237010BD640000200000000027
:10015000C41F000808B5034B1BB103490348AFF3A4
:10016000008008BD0000000068000020C41F0008D7
:1001700081F0004102E000BF83F0004330B54FEA58
:1001800041044FEA430594EA050F08BF90EA020FC5
:100190001FBF54EA000C55EA020C7FEA645C7FEA58
:1001A000655C00F0E2804FEA5454D4EB5555B8BF7B
:1001B0006D420CDD2C4480EA020281EA030382EAEC
:1001C000000083EA010180EA020281EA0303362D7E
:1001D00088BF30BD11F0004F4FEA01314FF4801C51
:1001E0004CEA113102D0404261EB410113F0004F63
:1001F0004FEA03334CEA133302D0524263EB43031A
:1002000094EA050F00F0A780A4F10104D5F1200EB7
:100210000DDB02FA0EFC22FA05F2801841F1000112
:1002200003FA0EF2801843FA05F359410EE0A5F1E6
:1002300020050EF1200E012A03FA0EFC28BF4CF017
:10024000020C43FA05F3C01851EBE37101F00045CD
:1002500007D54FF0000EDCF1000C7EEB00006EEBDA
:100260000101B1F5801F1BD3B1F5001F0CD3490864
:100270005FEA30004FEA3C0C04F101044FEA4452BB
:1002800012F5800F80F09A80BCF1004F08BF5FEA42
:10029000500C50F1000041EB045141EA050130BD22
:1002A0005FEA4C0C404141EB0101013C28BFB1F534
:1002B000801FE9D291F0000F04BF01460020B1FA7F
:1002C00081F308BF2033A3F10B03B3F120020CDA52
:1002D0000C3208DD02F1140CC2F10C0201FA0CF030
:1002E00021FA02F10CE002F11402D8BFC2F1200C95
:1002F00001FA02F120FA0CFCDCBF41EA0C0190404B
:10030000E41AA2BF01EB0451294330BD6FEA040493
:100310001F3C1CDA0C340EDC04F11404C4F120027E
:1003200020FA04F001FA02F340EA030021FA04F390
:1003300045EA030130BDC4F10C04C4F1200220FAE7
:1003400002F001FA04F340EA0300294630BD21FA25
:1003500004F0294630BD94F0000F83F4801306BFEB
:1003600081F480110134013D4EE77FEA645C18BFDF
:100370007FEA655C29D094EA050F08BF90EA020F76
:1003800005D054EA000C04BF1946104630BD91EA6E
:10039000030F1EBF0021002030BD5FEA545C05D171
:1003A0004000494128BF41F0004130BD14F58004B0
:1003B0003CBF01F5801130BD01F0004545F0FE4124
:1003C00041F470014FF0000030BD7FEA645C1ABF59
:1003D000194610467FEA655C1CBF0B46024650EA90
:1003E000013406BF52EA033591EA030F41F40021BC
:1003F00030BD00BF90F0000F04BF0021704730B542
:100400004FF4806404F132044FF000054FF0000116
:1004100050E700BF90F0000F04BF0021704730B5D7
:100420004FF4806404F1320410F0004548BF4042AC
:100430004FF000013EE700BF42004FEAE2014FEA01
:1004400031014FEA02701FBF12F07F4393F07F4FDC
:1004500081F06051704732F07F4208BF704793F0DF
:100460007F4F04BF41F40021704730B54FF46074F2
:1004700001F0004521F000411CE700BF50EA0102F5
:1004800008BF704730B54FF000050AE050EA01029E
:1004900008BF704730B511F0004502D5404261EB0E
:1004A00041014FF4806404F132045FEA915C3FF44F
:1004B000D8AE4FF003025FEADC0C18BF03325FEAEC
:1004C000DC0C18BF033202EBDC02C2F1200300FA9D
:1004D00003FC20FA02F001FA03FE40EA0E0021FAC2
:1004E00002F11444BDE600BF70B54FF0FF0C4CF4B0
:1004F000E06C1CEA11541DBF1CEA135594EA0C0F62
:1005000095EA0C0F00F0DEF82C4481EA030621EA9C
:100510004C5123EA4C5350EA013518BF52EA0335D7
:1005200041F4801143F4801338D0A0FB02CE4FF089
:100530000005E1FB02E506F00042E0FB03E54FF0B9
:100540000006E1FB03569CF0000F18BF4EF0010EB1
:10055000A4F1FF04B6F5007F64F5407404D25FEAAD
:100560004E0E6D4146EB060642EAC62141EA555160
:100570004FEAC52040EA5E504FEACE2EB4F1FD0CA2
:1005800088BFBCF5E06F1ED8BEF1004F08BF5FEA20
:10059000500E50F1000041EB045170BD06F00046D2
:1005A00046EA010140EA020081EA0301B4EB5C047F
:1005B000C2BFD4EB0C0541EA045170BD41F4801177
:1005C0004FF0000E013C00F3AB8014F1360FDEBF9C
:1005D000002001F0004170BDC4F10004203C35DA78
:1005E0000C341BDC04F11404C4F1200500FA05F3FB
:1005F00020FA04F001FA05F240EA020001F000429C
:1006000021F0004110EBD37021FA04F642EB060111
:100610005EEA430E08BF20EAD37070BDC4F10C043B
:10062000C4F1200500FA04F320FA05F001FA04F2FF
:1006300040EA020001F0004110EBD37041F10001EB
:100640005EEA430E08BF20EAD37070BDC4F12005F6
:1006500000FA05F24EEA020E20FA04F301FA05F25E
:1006600043EA020321FA04F001F0004121FA04F206
:1006700020EA020000EBD3705EEA430E08BF20EAD6
:10068000D37070BD94F0000F0FD101F00046400010
:1006900041EB010111F4801F08BF013CF7D041EA92
:1006A000060195F0000F18BF704703F00046520096
:1006B00043EB030313F4801F08BF013DF7D043EA67
:1006C0000603704794EA0C0F0CEA135518BF95EA1D
:1006D0000C0F0CD050EA410618BF52EA4306D1D1A4
:1006E00081EA030101F000414FF0000070BD50EAC3
:1006F000410606BF1046194652EA430619D094EA4D
:100700000C0F02D150EA013613D195EA0C0F05D136
:1007100052EA03361CBF104619460AD181EA03018A
:1007200001F0004141F0FE4141F470014FF0000042
:1007300070BD41F0FE4141F4780170BD70B54FF0DD
:10074000FF0C4CF4E06C1CEA11541DBF1CEA13555D
:1007500094EA0C0F95EA0C0F00F0A7F8A4EB05043F
:1007600081EA030E52EA03354FEA013100F0888036
:100770004FEA03334FF0805545EA131343EA1263FF
:100780004FEA022245EA111545EA10654FEA0026B4
:100790000EF000419D4208BF964244F1FD0404F56D
:1007A000407402D25B084FEA3202B61A65EB0305C9
:1007B0005B084FEA32024FF480104FF4002CB6EB86
:1007C000020E75EB030E22BFB61A754640EA0C0006
:1007D0005B084FEA3202B6EB020E75EB030E22BF46
:1007E000B61A754640EA5C005B084FEA3202B6EB87
:1007F000020E75EB030E22BFB61A754640EA9C0046
:100800005B084FEA3202B6EB020E75EB030E22BF15
:10081000B61A754640EADC0055EA060E18D04FEAD3
:10082000051545EA16754FEA06164FEAC30343EA73
:1008300052734FEAC2025FEA1C1CC0D111F4801F40
:100840000BD141EA00014FF000004FF0004CB6E739
:1008500011F4801F04BF01430020B4F1FD0C88BFD8
:10086000BCF5E06F3FF6AFAEB5EB030C04BFB6EBE3
:10087000020C5FEA500C50F1000041EB045170BDD6
:100880000EF0004E4EEA113114EB5C04C2BFD4EB03
:100890000C0541EA045170BD41F480114FF0000E87
:1008A000013C90E645EA060E8DE60CEA135594EA03
:1008B0000C0F08BF95EA0C0F3FF43BAF94EA0C0F06
:1008C0000AD150EA01347FF434AF95EA0C0F7FF47B
:1008D00025AF104619462CE795EA0C0F06D152EACF
:1008E00003353FF4FDAE1046194622E750EA4106B3
:1008F00018BF52EA43067FF4C5AE50EA41047FF4C4
:100900000DAF52EA43057FF4EBAE12E74FF0FF3C28
:1009100006E000BF4FF0010C02E000BF4FF0010CF9
:100920004DF804CD4FEA410C7FEA6C5C4FEA430C72
:1009300018BF7FEA6C5C1BD001B050EA410C0CBFC1
:1009400052EA430C91EA030F02BF90EA020F002023
:10095000704710F1000F91EA030F58BF994208BF8A
:1009600090422CBFD8176FEAE37040F00100704747
:100970004FEA410C7FEA6C5C02D150EA013C07D19E
:100980004FEA430C7FEA6C5CD6D152EA033CD3D0E9
:100990005DF8040B704700BF8446104662468C46E3
:1009A0001946634600E000BF01B5FFF7B7FF002816
:1009B00048BF10F1000F01BD4DF808EDFFF7F4FF3F
:1009C0000CBF012000205DF808FB00BF4DF808EDCA
:1009D000FFF7EAFF34BF012000205DF808FB00BFED
:1009E0004DF808EDFFF7E0FF94BF012000205DF80F
:1009F00008FB00BF4DF808EDFFF7CEFF94BF0120C4
:100A000000205DF808FB00BF4DF808EDFFF7C4FFBC
:100A100034BF012000205DF808FB00BF4FEA410C05
:100A20007FEA6C5C02D150EA013C0AD14FEA430CE8
:100A30007FEA6C5C02D152EA033C02D14FF0000025
:100A400070474FF00100704780B500AF074B1B683F
:100A5000002B02D0054B1B689847054B5B69044A85
:100A600043F00103536100BF80BD00BF8000002040
:100A70000004014080B500AF074B1B68002B02D07B
:100A8000054B1B689847054B5B69044A43F002031A
:100A9000536100BF80BD00BF8400002000040140FE
:100AA00080B500AF074B1B68002B02D0054B1B68BD
:100AB0009847054B5B69044A43F00403536100BF48
:100AC00080BD00BF880000200004014080B500AF59
:100AD000074B1B68002B02D0054B1B689847054B42
:100AE0005B69044A43F00803536100BF80BD00BF47
:100AF0008C0000200004014080B500AF074B1B684C
:100B0000002B02D0054B1B689847054B5B69044AD4
:100B100043F02003536100BF80BD00BF9000002060
:100B20000004014080B500AF134B1B68002B02D0BE
:100B3000114B1B689847114B5B69104A43F0200327
:100B400053610E4B5B690D4A43F0400353610B4BFD
:100B50005B690A4A43F080035361084B5B69074AAB
:100B600043F480735361054B5B69044A43F400739B
:100B7000536100BF80BD00BF94000020000401400D
:100B800080B500AF164B1B68002B02D0144B1B68BE
:100B90009847144B5B69134A43F480635361114BCC
:100BA0005B69104A43F4006353610E4B5B690D4A65
:100BB00043F4805353610B4B5B690A4A43F400537F
:100BC0005361084B5B69074A43F480435361054B0B
:100BD0005B69044A43F40043536100BF80BD00BF1A
:100BE000980000200004014080B483B000AF0346A9
:100BF000FB710B46BB7113467B71BB79072B52D837
:100C0000FB79022B37D0022B00F3A980002B02D0F6
:100C1000012B18D0A3E0544B1B68BA799200032132
:100C200001FA02F2D24311464F4A0B4013604E4B79
:100C30001B687979BA79920001FA02F211464A4AA0
:100C40000B4313608BE0494B1B68BA799200032178
:100C500001FA02F2D2431146444A0B401360434B5F
:100C60001B687979BA79920001FA02F211463F4A7B
:100C70000B43136073E03E4B1B68BA79920003216B
:100C800001FA02F2D2431146394A0B401360384B45
:100C90001B687979BA79920001FA02F21146344A56
:100CA0000B4313605BE0BB79072B57D9BB790F2B44
:100CB00054D8BB79083BBB71FB79022B36D0022B91
:100CC0004DDC002B02D0012B18D048E0264B5B688E
:100CD000BA799200032101FA02F2D2431146224A64
:100CE0000B405360204B5B687979BA79920001FA26
:100CF00002F211461C4A0B43536030E01B4B5B6809
:100D0000BA799200032101FA02F2D2431146174A3E
:100D10000B405360154B5B687979BA79920001FA00
:100D200002F21146114A0B43536018E0104B5B6806
:100D3000BA799200032101FA02F2D24311460C4A19
:100D40000B4053600A4B5B687979BA79920001FADB
:100D500002F21146064A0B43536000E000BF00BF99
:100D60000C37BD4680BC704700080140000C0140B4
:100D70000010014080B483B000AF0346FB710B4606
:100D8000BB7113467B71BB79072B00F28380FB7923
:100D9000022B57D0022B00F31881002B02D0012B1D
:100DA00028D012E18B4B1B68BA79920002320321E2
:100DB00001FA02F2D2431146864A0B401360854B7A
:100DC0001B687979BA799200023201FA02F211466F
:100DD000804A0B4313607B79022B40F0E9807D4B06
:100DE000DB68BA79012101FA02F21146794A0B4314
:100DF000D360DDE0784B1B68BA79920002320321A0
:100E000001FA02F2D2431146734A0B401360724B4F
:100E10001B687979BA799200023201FA02F211461E
:100E20006D4A0B4313607B79022B40F0C3806A4B01
:100E3000DB68BA79012101FA02F21146664A0B43D6
:100E4000D360B7E0654B1B68BA7992000232032188
:100E500001FA02F2D2431146604A0B4013605F4B25
:100E60001B687979BA799200023201FA02F21146CE
:100E70005A4A0B4313607B79022B40F09D80574BFD
:100E8000DB68BA79012101FA02F21146534A0B4399
:100E9000D36091E0BB79072B40F29080BB790F2B98
:100EA00000F28C80BB79083BBB71FB79022B57D0D9
:100EB000022B00F38A80002B02D0012B28D084E083
:100EC000444B5B68BA7992000232032101FA02F2C4
:100ED000D24311463F4A0B4053603E4B5B687979E1
:100EE000BA799200023201FA02F21146394A0B43F2
:100EF00053607B79022B63D1364BDB68BA790832B9
:100F0000012101FA02F21146324A0B43D36057E045
:100F1000314B5B68BA7992000232032101FA02F286
:100F2000D24311462C4A0B4053602B4B5B687979B6
:100F3000BA799200023201FA02F21146264A0B43B4
:100F400053607B79022B3DD1234BDB68BA790832A1
:100F5000012101FA02F211461F4A0B43D36031E02E
:100F60001E4B5B68BA7992000232032101FA02F249
:100F7000D2431146194A0B405360184B5B6879798C
:100F8000BA799200023201FA02F21146134A0B4377
:100F900053607B79022B17D10F4BDB68BA7908328B
:100FA000012101FA02F211460B4A0B43D3600BE018
:100FB00000BF0AE000BF08E000BF06E000BF04E099
:100FC00000BF02E000BF00E000BF00BF0C37BD461D
:100FD00080BC704700080140000C01400010014037
:100FE00080B485B000AF03460A46FB711346BB715F
:100FF0000023FB73FB79022B1AD0022B22DC002B7F
:1010000002D0012B0AD01DE0114B9A68BB7922FA5D
:1010100003F3DBB203F00103FB7313E00D4B9A689B
:10102000BB7922FA03F3DBB203F00103FB7309E09F
:10103000094B9A68BB7922FA03F3DBB203F0010390
:10104000FB7300BFFB7B18461437BD4680BC70475E
:1010500000080140000C01400010014080B500AFC5
:101060000021032000F068FB1521022000F064FB42
:101070001E4B5B681D4A23F00203536003210320CB
:1010800000F05AFB032206210120FFF7ADFD0322E9
:1010900006210120FFF76EFE032207210120FFF742
:1010A000A3FD032207210120FFF764FE104B1B68FC
:1010B0000F4A43F4004313600D4B1B680C4A23F4A2
:1010C000004313600A4B08225A60094B2822DA6158
:1010D000074B09221A62064B1B68054A43F00103BD
:1010E0001360642000F0ECFB00BF80BD00000140F5
:1010F0000054004080B483B000AF0023FB80002385
:101100007B71124B1B68114A43F48073136002E039
:10111000FB880133FB800D4B5B6903F00103002B5F
:1011200004D1FB8846F2A7129342F1D9074B5B69C1
:10113000FB8846F2A712934201D901237B717B7988
:1011400018460C37BD4680BC704700BF00540040B5
:1011500080B485B000AF0346FB710023FB7300230E
:10116000BB811C4AFB79136102E0BB890133BB815F
:10117000184B5B695B0803F00103002B04D1BB89AA
:1011800046F2A7129342F0D90023BB8108E0114B2D
:101190005B69BB600F4B9B69BB60BB890133BB8143
:1011A0000C4B5B695B0803F00103012B04D1BB8985
:1011B00046F2A7129342EAD9BB8946F2A71293429C
:1011C00001D90123FB73FB7B18461437BD4680BC55
:1011D000704700BF0054004080B485B000AF0346A4
:1011E000FB710023FB730023BB8102E0BB89013349
:1011F000BB811A4B5B69DB0903F00103002B04D1AF
:10120000BB8946F2A7129342F0D9144AFB791361C5
:10121000BB8946F2A712934201D90123FB73002335
:10122000BB8102E0BB890133BB810C4B5B69DB09ED
:1012300003F00103002B04D1BB8946F2A7129342AD
:10124000F0D9BB8946F2A712934201D90223FB735E
:10125000FB7B18461437BD4680BC704700540040E5
:1012600080B483B000AF084B5B697B60064B9B6921
:101270007B60054B1B68044A43F40073136000BF96
:101280000C37BD4680BC70470054004080B485B028
:1012900000AF0346FB710023FB81144B1B68134A0C
:1012A00043F48063136002E0FB890133FB810F4B41
:1012B0005B699B0903F00103002B04D1FB8946F213
:1012C000A7129342F0D9094B1B697B73FB79012B61
:1012D00005D1064B1B68054A23F4806313607B7BB2
:1012E00018461437BD4680BC704700BF005400400C
:1012F00080B500AFFFF7FEFED020FFF729FF6B207F
:10130000FFF76AFF0020FFF767FFFFF7A9FFFFF76E
:10131000F1FED020FFF71CFF1A20FFF75DFF012030
:10132000FFF75AFFFFF79CFFFFF7E4FED020FFF71F
:101330000FFF1B20FFF750FF1020FFF74DFFFFF7B7
:101340008FFFFFF7D7FED020FFF702FF1C20FFF72B
:1013500043FF0020FFF740FFFFF782FFFFF7CAFEC1
:10136000D020FFF7F5FE3820FFF736FF0020FFF70B
:1013700033FFFFF775FFFFF7BDFED020FFF7E8FE54
:101380006820FFF729FF0020FFF726FFFFF768FF1F
:1013900000BF80BD80B584B000AF0346FB71FFF78E
:1013A000A9FED020FFF7D4FEFB791846FFF714FF03
:1013B000FFF7A0FED120FFF7CBFE0120FFF766FF6D
:1013C0000346FB73FFF74CFFFB7B18461037BD4607
:1013D00080BD80B582B000AF786039603B20FFF7F8
:1013E000D9FF03461A463B681A703C20FFF7D2FF2C
:1013F00003461A467B681A7000BF0837BD4680BD99
:1014000080B582B000AF786039603D20FFF7C2FF41
:1014100003461A463B681A703E20FFF7BBFF03469F
:101420001A467B681A7000BF0837BD4680BD80B57C
:1014300082B000AF786039603F20FFF7ABFF034612
:101440001A463B681A704020FFF7A4FF03461A466D
:101450007B681A7000BF0837BD4680BD80B584B078
:1014600000AF786007F10C03013307F10C02194655
:101470001046FFF7AEFF7B7B1B021AB23B7B1BB211
:1014800013431AB27B681A8007F10C03013307F18A
:101490000C0219461046FFF7B3FF7B7B1B0219B203
:1014A0003B7B1AB27B6802330A4312B21A8007F1FF
:1014B0000C03013307F10C0219461046FFF7B7FF82
:1014C0007B7B1B0219B23B7B1AB27B6804330A4355
:1014D00012B21A8000BF1037BD4680BD0000000068
:1014E000B0B594B000AF78604FF000024FF0000349
:1014F000C7E910234FF000024FF00003C7E90E23A5
:101500004FF000024FF00003C7E90C23002387F8D7
:101510004F3007F108031846FFF7A0FFB7F908306E
:101520001846FEF777FF6EA3D3E90023FEF7DCFF32
:1015300002460B461046194602460B46FEF71EFEB3
:1015400002460B46104619464FF00002664BFFF765
:10155000F5F802460B46C7E90A23B7F90A301846E0
:10156000FEF758FF5EA3D3E90023FEF7BDFF024656
:101570000B461046194602460B46FEF7FFFD024693
:101580000B46104619464FF00002574BFFF7D6F8AE
:1015900002460B46C7E90823B7F90C301846FEF798
:1015A00039FF4FA3D3E90023FEF79EFF02460B4607
:1015B0001046194602460B46FEF7E0FD02460B4672
:1015C000104619464FF00002474BFFF7B7F80246A6
:1015D0000B46C7E906237B68D3E90023D7E90A0154
:1015E000FEF7CAFD02460B46C7E910237B680833A5
:1015F000D3E90023D7E90801FEF7BEFD02460B46FA
:10160000C7E90E237B681033D3E90023D7E906012D
:10161000FEF7B2FD02460B46C7E90C237968D7E90D
:101620000A23C1E900237B6803F10801D7E90823F5
:10163000C1E900237B6803F11001D7E90623C1E962
:101640000023D7E91023D7E91001FEF74DFF02462A
:101650000B4614461D46D7E90E23D7E90E01FEF7C7
:1016600043FF02460B4620462946FEF787FD024609
:101670000B4614461D46D7E90C23D7E90C01FEF7AB
:1016800033FF02460B4620462946FEF777FD024609
:101690000B461046194600F0C1FBC7E904014FF0A4
:1016A0000002124BD7E90401FFF7A4F90346002B0F
:1016B00005D00F4B1B780133DAB20D4B1A700C4B6F
:1016C0001B78012B05D90A4B00221A70012387F8D9
:1016D0004F3097F84F3018465037BD46B0BD00BF69
:1016E0009A999999999923400000E0400000184088
:1016F0009C00002080B400AF0E4B1B680D4A43F0E5
:101700000103136000BF0B4B1B685B0803F0010370
:10171000002BF8D0074B5B68064A23F001035360A7
:10172000044B5B68034A23F00203536000BFBD46CD
:1017300080BC70470010024080B483B000AF034605
:101740000A46FB711346BB71BB791F2B2AD8FB7964
:10175000032B1CD0032B26DC012B02D0022B0BD039
:1017600021E0134B5B69BA79012101FA02F21146BB
:101770000F4A0B43536116E00D4BDB69BA79012127
:1017800001FA02F211460A4A0B43D3610BE0084BFF
:101790009B69BA79012101FA02F21146044A0B430E
:1017A000936100E000BF00BF0C37BD4680BC7047AE
:1017B0000010024080B400AF094B1A78094BDA6080
:1017C00001E0084BDB68074B9B6803F00103012B2A
:1017D000F7D0054B01221A7000BFBD4680BC704790
:1017E0009D000020003001409E00002080B483B0A6
:1017F00000AF7860104A7B6853600F4B1B680E4A3D
:1018000043F00103136000BF0B4B1B681B0C03F07C
:101810000103002BF8D0084B1B68074A23F0010393
:101820001360054B00225A60034B00229A6000BFF0
:101830000C37BD4680BC704710E000E080B483B038
:1018400000AF00237B60064B5A68054B9B68D31A98
:101850007B607B6818460C37BD4680BC704700BF74
:1018600010E000E080B582B000AF124B1B68002B87
:1018700011D1114B1B68104A23F0020313600E4B69
:101880001B680D4A23F0010313600B4B00225A60C2
:10189000094B00229A60094B1B689847064B1B684E
:1018A0001B0CDBB203F00103FB7100BF0837BD4620
:1018B00080BD00BFA400002010E000E0A0000020D8
:1018C00080B582B000AF78607B684FF47A7202FB1B
:1018D00003F31846FFF78AFF00BF0837BD4680BDF7
:1018E00080B500AF0E210320FFF726FF0221032061
:1018F000FFF722FF00210320FFF71EFF032209212B
:101900000020FFF771F9022209210020FFF732FAC7
:1019100000220A210020FFF767F902220A21002095
:10192000FFF728FA284BDB68274A23F40053D360DB
:10193000254B00221A60244BDB68234A23F4805392
:10194000D360214B1B69204A23F4805313611E4B43
:101950001B691D4A23F4005313611B4BDB681A4AB1
:1019600043F00803D360184BDB68174A43F00403C5
:10197000D360154B40F241329A60134B1B69124AF7
:1019800023F400631361104B1B690F4A23F4804357
:1019900013610D4B5B690C4A23F0200353610A4B22
:1019A0005B69094A23F008035361074B5B69064AE8
:1019B00023F002035361044BDB68034A43F40053F2
:1019C000D36000BF80BD00BF0038014080B483B049
:1019D00000AF03460A46FB711346BB71FB79012B2E
:1019E00011D1154ABB79536000BF134B1B689B098B
:1019F00003F00103002BF8D00F4B1B680E4A23F0B5
:101A00004003136013E0FB79022B10D10B4ABB7922
:101A1000536000BF094B1B689B0903F00103002BB7
:101A2000F8D0064B1B68054A23F04003136000BF43
:101A30000C37BD4680BC7047003801400044004070
:101A400080B500AF054B1B68002B05D0044B00226E
:101A50001A60024B1B68984700BF80BDA800002099
:101A60000038014080B500AF054B1B68002B05D046
:101A7000044B00221A60024B1B68984700BF80BDD0
:101A8000AC0000200044004080B400AF194BDB687C
:101A9000184A43F00203D3604FF080433222DA62E7
:101AA0004FF080431B684FF0804243F00103136006
:101AB00000BF4FF080431B6903F00103002BF8D0F7
:101AC0004FF080431B684FF0804223F00103136006
:101AD0004FF080431B694FF0804223F001031361F4
:101AE000044BDB68034A23F00203D36000BFBD460A
:101AF00080BC70470008014080B500AF0021022083
:101B0000FFF71AFE4FF0804307229A62022103205A
:101B1000FFF712FE02210320FFF70EFE0022002134
:101B20000020FFF761F8022200210020FFF722F9D0
:101B3000032201210020FFF757F800220121002095
:101B4000FFF718F900BF80BD80B584B000AF002357
:101B5000FB6000237B6000233B6000237B812A4BDA
:101B60006FF07F425A60284B1B68274A43F00103FD
:101B70001360FFF789FF02E0FB680133FB6000217F
:101B80000020FFF72DFA0346002B04D1FB6844F632
:101B90001F629342F0D9FFF751FE786002E0FB68C4
:101BA0000133FB6000210020FFF71AFA0346012BE6
:101BB00003D1FB68154A9342F1D9FFF73FFE386025
:101BC000114B1B68104A23F0010313600E4B0022D7
:101BD0005A600D4B00229A603A687B68D31A48F22B
:101BE000D04202FB03F30A4AA2FB0323DB0C7B81F6
:101BF000FB68064A934202D94FF6FF737B817B89CB
:101C000018461037BD4680BD10E000E07F841E00FE
:101C100083DE1B430000000080B58AB000AF0023C4
:101C200087F827300023BB84FFF764FD02210320DF
:101C3000FFF782FD0C210320FFF77EFD032209211F
:101C40000120FEF7D1FF002209210120FFF792F8C1
:101C5000FFF704FAFFF744FEFFF74AFB3220FFF7D5
:101C60002FFEFFF749FF3B461846FFF7F7FBB7F992
:101C700000301846FEF7CEFB3BA3D3E90023FEF766
:101C800033FC02460B461046194602460B46FEF749
:101C900075FA02460B46104619464FF00002344BC7
:101CA000FEF74CFD02460B46C7E90223B7F90230A6
:101CB0001846FEF7AFFB2CA3D3E90023FEF714FC74
:101CC00002460B461046194602460B46FEF756FAE8
:101CD00002460B46104619464FF00002244BFEF711
:101CE0002DFD02460B46C7E90423B7F90430184618
:101CF000FEF790FB1CA3D3E90023FEF7F5FB024699
:101D00000B461046194602460B46FEF737FA0246C6
:101D10000B46104619464FF00002154BFEF70EFD1C
:101D200002460B46C7E9062307F108031846FFF7EA
:101D3000D7FB034687F82730FFF706FF0346BB842F
:101D400097F82730012B0BD1BB8C052B04D85321DE
:101D50000120FFF73BFE03E030210120FFF736FEB4
:101D60003220FFF7ADFDDFE79A99999999992340C1
:101D70000000E0400D488546AFF300800C480D4957
:101D80000D4A002302E0D458C4500433C4188C42D6
:101D9000F9D30A4A0A4C002301E013600432A2423C
:101DA000FBD300F017F8FFF737FFFEE7002800200D
:101DB0000000002064000020E41F000864000020F0
:101DC000B0000020FEE70000014B1868704700BF1C
:101DD0000000002070B500260C4D0D4C641BA410B3
:101DE000A64209D100F0EEF800260A4D0A4C641B09
:101DF000A410A64205D170BD55F8043B98470136A2
:101E0000EEE755F8043B98470136F2E7DC1F00087F
:101E1000DC1F0008DC1F0008E01F0008F8B50646BC
:101E20000F4600F01FF8324604460D463B4630464A
:101E30003946FEF7F3FD90B90022002330463946BB
:101E4000FEF7C4FD58B1FFF7BFFF21230022036056
:101E5000002310461946FEF771FC04460D46204645
:101E60002946F8BDDFF858C12DE9F0413CEA010CE4
:101E700006460D460C460A46074603460FD1024663
:101E80000B46FEF731FB02460B4630462946FEF76D
:101E900075F906460D4630462946BDE8F081002911
:101EA0000EDC21F0004C5CEA0707F4D041B1024699
:101EB0000B46FEF761F902460B46FEF73FFCE8E7EA
:101EC000211575D0CC074FF00004C2F31302A1F224
:101ED000FF3742F480125EBFD90F5B0001EB420274
:101EE000D90F01EB4202162520464FF400117F1056
:101EF0005B0046189642DEBF921B701864185200B1
:101F0000013D02EBD3724FEA51014FEA4303F0D196
:101F100029464FF0200E4FF00046824206EB050C9A
:101F200002DC13D19C4511D8BCF1000F0CEB060567
:101F300043DA002D41DB00F10108121A40469C45AE
:101F400088BF02F1FF32A3EB0C0331444FEAD37C8C
:101F5000BEF1010E0CEB42024FEA43034FEA560674
:101F6000DBD1134306D0481C0BBF7146013101344D
:101F700021F001016310490803F17F53E20703F5E3
:101F8000001348BF41F000410E4603EB075582E7BE
:101F9000DA0A15385B05002AFAD0D5020AD5C1F154
:101FA000200423FA04F44D1E8B402243411B89E791
:101FB0000846F0E752000131EFE78046BDE700BF79
:101FC0000000F07FF8B500BFF8BC08BC9E46704723
:0C1FD000F8B500BFF8BC08BC9E46704786
:041FDC0055010008A3
:041FE00031010008C3
:101FE40004000020000000000000000000000000C9
:101FF40000000000000000000000000000000000DD
:1020040000000000000000000000000000000000CC
:1020140000000000000000000000000000000000BC
:1020240000000000000000000000000000000000AC
:10203400000000000000000000000000000000009C
:042044000000000098
:0400000508001D755D
:00000001FF
