:020000040800F2
:10000000002800200D0E00085D0E00085D0E00089F
:100010005D0E00085D0E00085D0E00080000000087
:100020000000000000000000000000005D0E00085D
:100030005D0E0008000000005D0E00080D090008BC
:100040005D0E00085D0E00085D0E00085D0E0008E4
:100050005D0E00085D0E00085D0E00085D0E0008D4
:100060005D0E00085D0E00085D0E00085D0E0008C4
:100070005D0E00085D0E00085D0E00085D0E0008B4
:100080005D0E00085D0E00085D0E00085D0E0008A4
:100090005D0E00085D0E00085D0E00085D0E000894
:1000A0005D0E00085D0E00085D0E00085D0E000884
:1000B0005D0E00085D0E00085D0E00085D0E000874
:1000C0005D0E00085D0E00085D0E00085D0E000864
:1000D0005D0E0008850C0008A90C00085D0E0008E4
:1000E0005D0E00085D0E0008000000005D0E0008B7
:1000F0005D0E00085D0E00085D0E00085D0E000834
:100100005D0E00085D0E00085D0E00085D0E000823
:100110005D0E00085D0E00085D0E00085D0E000813
:100120005D0E00085D0E00085D0E00085D0E000803
:1001300010B5054C237833B9044B13B10448AFF321
:1001400000800123237010BD00000020000000008B
:10015000A80E000808B5034B1BB103490348AFF3D1
:10016000008008BD0000000004000020A80E000868
:1001700080B483B000AF0346FB710B46BB711346DE
:100180007B71BB79072B52D8FB79022B37D0022B1E
:1001900000F3A980002B02D0012B18D0A3E0544B10
:1001A0001B68BA799200032101FA02F2D243114688
:1001B0004F4A0B4013604E4B1B687979BA79920015
:1001C00001FA02F211464A4A0B4313608BE0494B95
:1001D0001B68BA799200032101FA02F2D243114658
:1001E000444A0B401360434B1B687979BA799200FB
:1001F00001FA02F211463F4A0B43136073E03E4B93
:100200001B68BA799200032101FA02F2D243114627
:10021000394A0B401360384B1B687979BA799200E0
:1002200001FA02F21146344A0B4313605BE0BB79DA
:10023000072B57D9BB790F2B54D8BB79083BBB711F
:10024000FB79022B36D0022B4DDC002B02D0012B88
:1002500018D048E0264B5B68BA799200032101FA76
:1002600002F2D2431146224A0B405360204B5B6896
:100270007979BA79920001FA02F211461C4A0B43CD
:10028000536030E01B4B5B68BA799200032101FA9E
:1002900002F2D2431146174A0B405360154B5B687C
:1002A0007979BA79920001FA02F21146114A0B43A8
:1002B000536018E0104B5B68BA799200032101FA91
:1002C00002F2D24311460C4A0B4053600A4B5B6862
:1002D0007979BA79920001FA02F21146064A0B4383
:1002E000536000E000BF00BF0C37BD4680BC7047C4
:1002F00000080140000C01400010014080B483B0B0
:1003000000AF0346FB710B46BB7113467B71BB7993
:10031000072B58D8FB79022B3BD0022B00F3B5807A
:10032000002B02D0012B1AD0AFE05A4B1B68BA79D0
:1003300092000232032101FA02F2D2431146554AD9
:100340000B401360534B1B687979BA7992000232E3
:1003500001FA02F211464F4A0B43136095E04E4BEF
:100360001B68BA7992000232032101FA02F2D243E9
:100370001146494A0B401360474B1B687979BA799B
:100380009200023201FA02F21146434A0B43136013
:100390007BE0424B1B68BA7992000232032101FADA
:1003A00002F2D24311463D4A0B4013603B4B1B689F
:1003B0007979BA799200023201FA02F21146374A8B
:1003C0000B43136061E0BB79072B5DD9BB790F2B21
:1003D0005AD8BB79083BBB71FB79022B3AD0022B70
:1003E00053DC002B02D0012B1AD04EE0294B5B6866
:1003F000BA7992000232032101FA02F2D243114685
:10040000244A0B405360234B5B687979BA79920098
:10041000023201FA02F211461E4A0B43536034E0E5
:100420001D4B5B68BA7992000232032101FA02F295
:10043000D2431146184A0B405360174B5B687979D9
:10044000BA799200023201FA02F21146124A0B43C3
:1004500053601AE0114B5B68BA79920002320321B3
:1004600001FA02F2D24311460C4A0B4053600B4B87
:100470005B687979BA799200023201FA02F2114688
:10048000064A0B43536000E000BF00BF0C37BD4677
:1004900080BC704700080140000C01400010014082
:1004A00080B483B000AF0346FB710B46BB711346AB
:1004B0007B717B79012B2AD1FB79022B1CD0022B7B
:1004C00053DC002B02D0012B0BD04EE0294BDB6814
:1004D000BA79012101FA02F21146264A0B43D36090
:1004E00043E0254BDB68BA79012101FA02F211469B
:1004F000214A0B43D36038E0204BDB68BA790121F5
:1005000001FA02F211461D4A0B43D3602DE0FB793C
:10051000022B1ED0022B28DC002B02D0012B0CD08A
:1005200023E0144BDB68BA79012101FA02F2D243CD
:100530001146104A0B40D36017E00F4BDB68BA79C5
:10054000012101FA02F2D24311460B4A0B40D3605B
:100550000BE00A4BDB68BA79012101FA02F2D243BF
:100560001146064A0B40D36000BF00BF0C37BD46A2
:1005700080BC704700080140000C014000100140A1
:1005800080B582B000AF0346FB710B46BB711346CA
:100590007B71FB790233DBB21946032000F050F97E
:1005A000B979FB7903221846FFF7E2FD7979FB79E7
:1005B00003221846FFF7DCFDB979FB7900221846C3
:1005C000FFF79CFE7979FB7900221846FFF796FE2B
:1005D00000BF0837BD4680BD80B582B000AF03467E
:1005E000FB710B46BB7113467B717979FB79002255
:1005F0001846FFF755FFB979FB7901221846FFF736
:100600004FFF00BF0837BD4680BD80B582B000AF48
:100610000346FB710B46BB7113467B71B979FB79BD
:1006200000221846FFF73CFF7979FB790122184632
:10063000FFF736FF00BF0837BD4680BD80B582B0EA
:1006400000AF0346FB710B46BB7113467B71B97952
:10065000FB7900221846FFF723FF7979FB79002206
:100660001846FFF71DFF00BF0837BD4680BD90B597
:1006700083B000AF0446084611461A462346FB7174
:100680000346BB710B467B7113463B717A79B9798E
:10069000FB791846FFF7A0FF3A7E3979FB791846B7
:1006A000FFF79AFF00BF0C37BD4690BD90B583B0F1
:1006B00000AF0446084611461A462346FB7103461E
:1006C000BB710B467B7113463B717A79B979FB7923
:1006D0001846FFF79AFF3A7E3979FB791846FFF7FB
:1006E00094FF00BF0C37BD4690BD90B583B000AFFE
:1006F0000446084611461A462346FB710346BB7161
:100700000B467B7113463B717A79B979FB791846B0
:10071000FFF794FF3A7E3979FB791846FFF75CFFC3
:1007200000BF0C37BD4690BD90B583B000AF044606
:10073000084611461A462346FB710346BB710B4619
:100740007B7113463B713A7E3979FB791846FFF786
:1007500075FF7A79B979FB791846FFF73DFF00BF3D
:100760000C37BD4690BD90B583B000AF0446084637
:1007700011461A462346FB710346BB710B467B713B
:1007800013463B717A79B979FB791846FFF756FF22
:100790003A7E3979FB791846FFF750FF00BF0C37D6
:1007A000BD4690BD80B483B000AF0346FB71FB79BA
:1007B0001F2B0AD80F4B1B68FA79012101FA02F2AC
:1007C00011460C4A0B4313600FE0FB793B2B0CD80E
:1007D000FB79203BFB71084B1B68FA79012101FA78
:1007E00002F21146044A0B43136000BF0C37BD46AA
:1007F00080BC704700E100E004E100E080B400AF9D
:100800000E4B1B680D4A43F00103136000BF0B4BF6
:100810001B685B0803F00103002BF8D0074B5B68F3
:10082000064A23F001035360044B5B68034A23F03C
:100830000203536000BFBD4680BC704700100240F9
:1008400080B483B000AF03460A46FB711346BB7108
:10085000BB791F2B2AD8FB79032B1CD0032B26DC5A
:10086000012B02D0022B0BD021E0134B5B69BA792C
:10087000012101FA02F211460F4A0B43536116E0BF
:100880000D4BDB69BA79012101FA02F211460A4ADD
:100890000B43D3610BE0084B9B69BA79012101FA44
:1008A00002F21146044A0B43936100E000BF00BF0F
:1008B0000C37BD4680BC70470010024080B483B046
:1008C00000AF7860104A7B6853600F4B1B680E4A7C
:1008D00043F00103136000BF0B4B1B681B0C03F0BC
:1008E0000103002BF8D0084B1B68074A23F00103D3
:1008F0001360054B00225A60034B00229A6000BF30
:100900000C37BD4680BC704710E000E080B582B077
:1009100000AF124B1B68002B11D1114B1B68104A02
:1009200023F0020313600E4B1B680D4A23F00103F2
:1009300013600B4B00225A60094B00229A60094B4E
:100940001B689847064B1B681B0CDBB203F00103C6
:10095000FB7100BF0837BD4680BD00BF20000020EE
:1009600010E000E01C00002080B582B000AF78608D
:100970007B684FF47A7202FB03F31846FFF79EFF81
:1009800000BF0837BD4680BD80B500AF0E210320F3
:10099000FFF756FF02210320FFF752FF002103203B
:1009A000FFF74EFF032209210020FFF7E1FB02229F
:1009B00009210020FFF7A2FC00220A210020FFF7F6
:1009C000D7FB02220A210020FFF798FC644BDB686A
:1009D000634A23F40053D360614B00221A60604BDA
:1009E000DB685F4A23F48053D3605D4B1B695C4A2C
:1009F00023F4805313615A4B1B69594A23F4005363
:100A00001361574BDB68564A43F00803D360544BDD
:100A1000DB68534A43F00403D360514B40F2413248
:100A20009A602520FFF7BEFE4D4BDB684C4A43F031
:100A30002003D3604A4B1B69494A23F400631361C6
:100A4000474B1B69464A23F480431361444B5B695F
:100A5000434A23F020035361414B5B69404A23F032
:100A6000080353613E4B5B693D4A23F00203536127
:100A70003B4BDB683A4A43F40053D3601121022018
:100A8000FFF7DEFE02210320FFF7DAFE002103203C
:100A9000FFF7D6FE032202210020FFF769FB0222A6
:100AA00002210020FFF72AFC002203210020FFF78B
:100AB0005FFB012203210020FFF720FC294BDB68AC
:100AC000284A23F40053D360264B00221A60254B9A
:100AD000DB68244A23F48053D360224B1B69214AEC
:100AE00023F4805313611F4B1B691E4A23F40053E8
:100AF00013611C4BDB681B4A43F00803D360194B9E
:100B0000DB68184A43F00403D360164B40F24132CD
:100B10009A60144B1B69134A23F400631361114B51
:100B20001B69104A23F4804313610E4B5B690D4A25
:100B300023F0200353610B4B5B690A4A23F008033F
:100B40005361084B5B69074A23F002035361054B6D
:100B5000DB68044A43F40053D36000BF80BD00BF8C
:100B6000003801400044004080B485B000AF034627
:100B7000FB710023FB734FF47A73BB81FB79012B6C
:100B80001DD1224B1B68214A23F02003136002E091
:100B9000BB89013BBB811D4B1B685B0903F0010353
:100BA000002B02D1BB89002BF2D1184B5B68FB7381
:100BB000164B1B68154A23F0200313601FE0FB79D6
:100BC000022B1CD1124B1B68114A23F02003136027
:100BD00002E0BB89013BBB810D4B1B685B0903F045
:100BE0000103002B02D1BB89002BF2D1084B5B68BB
:100BF000FB73074B1B68064A23F020031360FB7B43
:100C000018461437BD4680BC704700BF003801400D
:100C10000044004080B485B000AF0346FB71FB790F
:100C2000012B03D1074B5B68FB7305E0FB79022BBB
:100C300002D1054B5B68FB73FB7B18461437BD463E
:100C400080BC7047003801400044004080B483B04D
:100C500000AF03463960FB71FB79012B03D1074AD2
:100C60003B68136005E0FB79022B02D1044A3B6824
:100C7000136000BF0C37BD4680BC704724000020C5
:100C80002800002080B500AF054B1B68002B05D065
:100C9000044B00221A60024B1B68984700BF80BDBE
:100CA000240000200038014080B500AF054B1B68D0
:100CB000002B05D0044B00221A60024B1B6898479A
:100CC00000BF80BD280000200044004080B582B0F5
:100CD00002AF0120FFF79EFF03461A46184B1A7019
:100CE000174B1B78532B03D0154B1B78732B16D146
:100CF000052300930423012200210020FFF733FD88
:100D0000012207210020FFF7CBFB4FF4FA60FFF729
:100D10002BFE002207210020FFF7C2FB0DE001227D
:100D200007210020FFF7BCFB6420FFF71DFE002217
:100D300007210020FFF7B4FB00BF00BFBD4680BD08
:100D40002C00002080B584B002AFFFF757FD0221D0
:100D50000320FFF775FD032207210020FFF708FAA3
:100D6000002207210020FFF7C9FAFFF70DFE01223C
:100D700000210020FFF704FC052204210020FFF7DA
:100D8000FFFB21490120FFF761FF0220FFF7ECFE86
:100D90000346FB71FB79462B08D1052300930423FE
:100DA000012200210020FFF762FCEEE7FB79422BD5
:100DB00008D1052300930423012200210020FFF71E
:100DC00075FCE2E7FB794C2B08D105230093042343
:100DD000012200210020FFF788FCD6E7FB79522B87
:100DE00008D1052300930423012200210020FFF7EE
:100DF0009BFCCAE705230093042301220021002065
:100E0000FFF7B1FCC1E700BFCD0C00080D488546D7
:100E1000AFF300800C480D490D4A002302E0D4587E
:100E2000C4500433C4188C42F9D30A4A0A4C002334
:100E300001E013600432A242FBD300F011F8FFF787
:100E400081FFFEE7002800200000002000000020B5
:100E5000C80E00080000002030000020FEE700005F
:100E600070B500260C4D0D4C641BA410A64209D190
:100E700000F01AF800260A4D0A4C641BA410A64282
:100E800005D170BD55F8043B98470136EEE755F89B
:100E9000043B98470136F2E7C00E0008C00E000878
:100EA000C00E0008C40E0008F8B500BFF8BC08BCAE
:100EB0009E467047F8B500BFF8BC08BC9E46704718
:040EC00055010008D0
:040EC40031010008F0
:0400000508000E0DD4
:00000001FF
