:100000000C942A000C9499010C94C2010C94EB01FD
:100010000C9447000C9447000C9447000C94470044
:100020000C9447000C9447000C948E040C946704C5
:100030000C9447000C9447000C9447000C94470024
:100040000C9447000C9447000C9447000C94470014
:100050000C94470011241FBECFE5D8E0DEBFCDBF12
:1000600010E0A0E6B0E0E8E7F9E002C005900D92EC
:10007000A036B107D9F720E0A0E6B0E001C01D929C
:10008000A937B207E1F70E94FD030C94BA040C945F
:1000900000008FEF8ABB8BBB87BB9BEF98BB84BBF9
:1000A00085BB91BB8FE782BB0895843008F084C084
:1000B000683008F083C0813031F138F0823009F4C3
:1000C00040C0833009F45BC07BC0442379F04130E9
:1000D00009F078C02BB381E090E002C0880F991F2F
:1000E0006A95E2F7822B8BBB81E008952BB381E008
:1000F00090E002C0880F991F6A95E2F780958223ED
:100100008BBB81E00895442379F0413009F05CC055
:1001100028B381E090E002C0880F991F6A95E2F74A
:10012000822B88BB81E0089528B381E090E002C073
:10013000880F991F6A95E2F78095822388BB81E03A
:100140000895442379F0413009F040C025B381E09F
:1001500090E002C0880F991F6A95E2F7822B85BB59
:1001600081E0089525B381E090E002C0880F991FD7
:100170006A95E2F78095822385BB81E00895442348
:1001800071F0413029F522B381E090E002C0880F80
:10019000991F6A95E2F7822B82BB81E0089522B312
:1001A00081E090E002C0880F991F6A95E2F7809580
:1001B000822382BB81E0089580E0089580E0089565
:1001C00080E0089580E0089580E0089580E008953B
:1001D00080E00895813049F028F0823049F0833082
:1001E00051F00CC06BBB81E0089568BB81E00895BD
:1001F00065BB81E0089562BB81E0089580E00895C9
:100200008130C9F120F0823009F469C07CC06130CE
:10021000E1F080F0623019F0633011F176C085B7FB
:100220008D7F85BF85B7816085BF8BB780648BBFAD
:1002300081E0089585B7826085BF85B78E7F85BFD1
:100240008BB780648BBF81E0089585B7826085BFDE
:1002500085B7816085BF8BB780648BBF81E00895CF
:1002600085B78D7F85BF85B78E7F85BF8BB780644F
:100270008BBF81E008956130E1F080F0623019F0C9
:10028000633011F144C085B7877F85BF85B784602F
:1002900085BF8BB780688BBF81E0089585B7886084
:1002A00085BF85B78B7F85BF8BB780688BBF81E0AB
:1002B000089585B7886085BF85B7846085BF8BB793
:1002C00080688BBF81E0089585B7877F85BF85B73C
:1002D0008B7F85BF8BB780688BBF81E008956623D5
:1002E00051F06130B1F484B7806484BF8BB7806211
:1002F0008BBF81E0089584B78F7B84BF8BB780620A
:100300008BBF81E0089580E0089580E0089580E04B
:10031000089580E00895833050F4E82FF0E0EE0F68
:10032000FF1FE05AFF4F7183608381E0089580E0F2
:1003300008951F920F920FB60F9211242F933F939F
:100340004F935F936F937F938F939F93AF93BF93DD
:10035000EF93FF93E0916000F0916100309709F016
:100360000995FF91EF91BF91AF919F918F917F91EF
:100370006F915F914F913F912F910F900FBE0F9012
:100380001F9018951F920F920FB60F9211242F9362
:100390003F934F935F936F937F938F939F93AF930D
:1003A000BF93EF93FF93E0916200F0916300309769
:1003B00009F00995FF91EF91BF91AF919F918F91B6
:1003C0007F916F915F914F913F912F910F900FBE51
:1003D0000F901F9018951F920F920FB60F92112435
:1003E0002F933F934F935F936F937F938F939F933D
:1003F000AF93BF93EF93FF93E0916400F09165009A
:10040000309709F00995FF91EF91BF91AF919F91BE
:100410008F917F916F915F914F913F912F910F90AD
:100420000FBE0F901F9018958FB780688FBF0895EB
:10043000CF93C82F40E060E080E00E94550040E08C
:1004400061E080E00E94550041E062E080E00E94AF
:1004500055006C2F81E00E94EA0040E062E080E0FD
:100460000E94550081EE94E00197F1F700C0000072
:1004700041E062E080E00E94550083EC99E0019742
:10048000F1F700C00000CF9108958BE49DE1019742
:10049000F1F700C0000082E00E94180285EA9EE0A9
:1004A0000197F1F700C0000088E30E94180289EF6D
:1004B00090E00197F1F700C000008CE00E94180264
:1004C00089EF90E00197F1F700C0000081E00E9401
:1004D000180285EA9EE00197F1F700C0000086E06F
:1004E0000E94180283EF91E00197F1F700C000002D
:1004F0000895CF93C82F41E060E080E00E9455004E
:1005000040E061E080E00E94550041E062E080E070
:100510000E9455006C2F81E00E94EA0040E062E0FA
:1005200080E00E94550081EE94E00197F1F700C051
:10053000000041E062E080E00E94550083EC99E019
:100540000197F1F700C00000CF9108959FEF960F3B
:10055000903170F4813019F0823031F008958FE7D6
:10056000860F0E94180208958FEB860F0E941802D2
:100570000895CF92DF92EF92FF920F931F938B011A
:100580009C01672B682B692B31F547C0DC01CB013F
:10059000880F991FAA1FBB1F6C017D01CC0CDD1CAD
:1005A000EE1CFF1CCC0CDD1CEE1CFF1CC80ED91E63
:1005B000EA1EFB1EC901B8012AE030E040E050E02D
:1005C0000E9498046C0D7D1D8E1D9F1D022F132F00
:1005D000242F352F04C061E070E080E090E0011529
:1005E00011052105310591F612C02AE030E040E006
:1005F00050E00E949804E22EF32E042F152F80E382
:10060000860F0E9479026E2D7F2D802F912F6130F1
:1006100071058105910549F703C080E30E947902C5
:100620001F910F91FF90EF90DF90CF9008958091F0
:10063000710090917200A0917300B09174000196C6
:10064000A11DB11D8093710090937200A09373005F
:10065000B093740088349105A105B10578F010922B
:100660007100109272001092730010927400109238
:100670006C0010926B0080E00E945E048091660026
:100680009091670001969093670080936600853F84
:1006900091406CF080916800909169000196909370
:1006A00069008093680010926700109266000895B8
:1006B00080916C00813009F09FC080916B008111A6
:1006C0000EC010927100109272001092730010927E
:1006D00074000E945E0481E080936B0008950E9484
:1006E0006504282F80936A008091710090917200B8
:1006F000A0917300B0917400BA2FA92F982F88276A
:10070000BC01CD01620F711D811D911D2AE330E0F6
:1007100040E050E00E94980420936D0030936E00FA
:1007200040936F0050937000809168009091690031
:1007300081309105C1F01CF4892B39F03DC0823025
:100740009105F9F0039759F137C061E081E00E940B
:10075000A6028CE40E94790281E30E9479028AE376
:100760000E94790229C069E081E00E94A6028CE41F
:100770000E94790282E30E9479028AE30E94790250
:100780001BC061E082E00E94A6028CE40E94790214
:1007900083E30E9479028AE30E9479020DC069E036
:1007A00082E00E94A6028CE40E94790284E30E9407
:1007B00079028AE30E94790260916D0070916E0067
:1007C00080916F00909170000E94B90280E20E94B7
:1007D000790280E20E94790283ED90E30197F1F7BC
:1007E00000C0000010926B0089EF90E00197F1F7D4
:1007F00000C0000010926C0008950E9449000E9401
:10080000140268E573E080E00E948B0162E080E002
:100810000E94000187E193E00E94600487EA91E66C
:100820000197F1F700C000000E9445020E944A04AF
:1008300080916C008111FCCF8091680090916900DB
:10084000049724F0109269001092680040916800AB
:10085000417060E082E00E94550040916800509134
:10086000690055954795417061E082E00E9455000E
:1008700041E067E083E00E94550096E09A95F1F729
:1008800000C040E067E083E00E94550081E0809373
:100890006C00CECF83B7877F83BF83B78F7B83BF47
:1008A00089B7816089BF12BE83B7816083BF83B778
:1008B0008D7F83BF83B78B7F83BF089582BF0895E9
:1008C0009093760080937500089582B708951F92E3
:1008D0000F920FB60F9211242F933F934F935F9374
:1008E0006F937F938F939F93AF93BF93EF93FF93F8
:1008F000E0917500F09176000995FF91EF91BF911D
:10090000AF919F918F917F916F915F914F913F91A7
:100910002F910F900FBE0F901F9018951F920F925E
:100920000FB60F9211240F900FBE0F901F901895C5
:10093000A1E21A2EAA1BBB1BFD010DC0AA1FBB1FE3
:10094000EE1FFF1FA217B307E407F50720F0A21B55
:10095000B30BE40BF50B661F771F881F991F1A94C2
:1009600069F760957095809590959B01AC01BD01EC
:08097000CF010895F894FFCFB8
:00000001FF
