:100000000C942A000C9434000C9434000C943400AA
:100010000C9434000C9434000C9434000C94340090
:100020000C9434000C9434000C9434000C94340080
:100030000C9434000C9434000C9434000C94340070
:100040000C9434000C9434000C9434000C94340060
:100050000C94340011241FBECFE5D8E0DEBFCDBF25
:100060000E9436000C94AD000C94000060E875E22C
:1000700080E090E00E945C0087B3866087BB88B315
:100080008D7F88BB88B38B7F88BB0E9487008333BA
:1000900061F488B3826088BB2FEB87E299E021503E
:1000A00080409040E1F700C0000082E30E9483009E
:1000B00088B3846088BBE9CFDC01CB01880F991F2E
:1000C000AA1FBB1F880F991FAA1FBB1F9C01AD0150
:1000D000220F331F441F551F220F331F441F551F6C
:1000E00060E472E48FE090E00E948B0021503109BF
:1000F00030BD29B98AB188608AB98AB180618AB96C
:1001000086E880BD08955D9BFECF8CB908955F9B06
:10011000FECF8CB10895A1E21A2EAA1BBB1BFD01D4
:100120000DC0AA1FBB1FEE1FFF1FA217B307E407D6
:10013000F50720F0A21BB30BE40BF50B661F771F2E
:10014000881F991F1A9469F760957095809590950E
:0E0150009B01AC01BD01CF010895F894FFCFD3
:00000001FF
