:100000000C942A000C94BC020C94E5020C940E0390
:100010000C9447000C9447000C9447000C94470044
:100020000C9447000C9447000C94D9050C94B2052D
:100030000C9447000C9447000C9447000C94470024
:100040000C9447000C9447000C9447000C94470014
:100050000C94470011241FBECFE5D8E0DEBFCDBF12
:1000600010E0A0E6B0E0EEE0FCE002C005900D92EA
:10007000A036B107D9F720E0A0E6B0E001C01D929C
:10008000A338B207E1F70E94F6040C9405060C941D
:1000900000008FEF8ABB8BBB87BB8BEF88BB9FECCD
:1000A00094BB9DEF95BB81BB8FE782BB08958430E5
:1000B00008F0CDC0683008F0CCC08130C1F138F014
:1000C000823009F464C0833009F491C0C4C0413067
:1000D00081F018F04230D1F0C0C02AB381E090E046
:1000E00002C0880F991F6A95E2F7822B8ABB81E0D4
:1000F00008952AB381E090E002C0880F991F6A95A5
:10010000E2F7809582238ABB81E008952AB381E0DB
:1001100090E002C0880F991F6A95E2F7982F90959A
:1001200092239ABB9BB3892B8BBB81E0089541300E
:1001300081F018F04230D1F092C027B381E090E016
:1001400002C0880F991F6A95E2F7822B87BB81E076
:10015000089527B381E090E002C0880F991F6A9547
:10016000E2F78095822387BB81E0089527B381E081
:1001700090E002C0880F991F6A95E2F7982F90953A
:10018000922397BB98B3892B88BB81E008954130B7
:1001900081F018F04230D1F064C024B381E090E0E7
:1001A00002C0880F991F6A95E2F7822B84BB81E019
:1001B000089524B381E090E002C0880F991F6A95EA
:1001C000E2F78095822384BB81E0089524B381E027
:1001D00090E002C0880F991F6A95E2F7982F9095DA
:1001E000922394BB95B3892B85BB81E00895413060
:1001F00081F018F04230D1F036C021B381E090E0B8
:1002000002C0880F991F6A95E2F7822B81BB81E0BB
:10021000089521B381E090E002C0880F991F6A958C
:10022000E2F78095822381BB81E0089521B381E0CC
:1002300090E002C0880F991F6A95E2F7982F909579
:10024000922391BB92B3892B82BB81E0089580E019
:10025000089580E0089580E0089580E0089580E0AA
:10026000089580E0089580E00895843008F084C007
:10027000683008F083C0813031F138F0823009F401
:1002800040C0833009F45BC07BC0442379F0413027
:1002900009F078C02BB381E090E002C0880F991F6D
:1002A0006A95E2F7822B8BBB81E008952BB381E046
:1002B00090E002C0880F991F6A95E2F7809582232B
:1002C0008BBB81E00895442379F0413009F05CC094
:1002D00028B381E090E002C0880F991F6A95E2F789
:1002E000822B88BB81E0089528B381E090E002C0B2
:1002F000880F991F6A95E2F78095822388BB81E079
:100300000895442379F0413009F040C025B381E0DD
:1003100090E002C0880F991F6A95E2F7822B85BB97
:1003200081E0089525B381E090E002C0880F991F15
:100330006A95E2F78095822385BB81E00895442386
:1003400071F0413029F522B381E090E002C0880FBE
:10035000991F6A95E2F7822B82BB81E0089522B350
:1003600081E090E002C0880F991F6A95E2F78095BE
:10037000822382BB81E0089580E0089580E00895A3
:1003800080E0089580E0089580E0089580E0089579
:1003900080E008956830D8F541155105D1F18130DC
:1003A00091F028F08230D9F0833029F134C089B33C
:1003B00090E002C0959587956A95E2F78170FA0101
:1003C000808381E0089586B390E002C0959587957B
:1003D0006A95E2F78170FA01808381E0089583B322
:1003E00090E002C0959587956A95E2F78170FA01D1
:1003F000808381E0089580B390E002C09595879551
:100400006A95E2F78170FA01808381E0089580E0C7
:10041000089580E0089580E00895813049F028F043
:10042000823049F0833051F00CC06BBB81E00895FD
:1004300068BB81E0089565BB81E0089562BB81E0FF
:10044000089580E008958130C9F120F0823009F4E8
:1004500069C07CC06130E1F080F0623019F0633037
:1004600011F176C085B78D7F85BF85B7816085BF67
:100470008BB780648BBF81E0089585B7826085BFAC
:1004800085B78E7F85BF8BB780648BBF81E0089571
:1004900085B7826085BF85B7816085BF8BB7806473
:1004A0008BBF81E0089585B78D7F85BF85B78E7F2F
:1004B00085BF8BB780648BBF81E008956130E1F028
:1004C00080F0623019F0633011F144C085B7877F46
:1004D00085BF85B7846085BF8BB780688BBF81E09F
:1004E000089585B7886085BF85B78B7F85BF8BB73B
:1004F00080688BBF81E0089585B7886085BF85B728
:10050000846085BF8BB780688BBF81E0089585B715
:10051000877F85BF85B78B7F85BF8BB780688BBF93
:1005200081E00895662351F06130B1F484B78064AE
:1005300084BF8BB780628BBF81E0089584B78F7BC7
:1005400084BF8BB780628BBF81E0089580E00895FF
:1005500080E0089580E0089580E00895833050F4AD
:10056000E82FF0E0EE0FFF1FE05AFF4F718360832A
:1005700081E0089580E008951F920F920FB60F92C8
:1005800011242F933F934F935F936F937F938F9398
:100590009F93AF93BF93EF93FF93E0916000F0912F
:1005A0006100309709F00995FF91EF91BF91AF91EC
:1005B0009F918F917F916F915F914F913F912F917B
:1005C0000F900FBE0F901F9018951F920F920FB6AD
:1005D0000F9211242F933F934F935F936F937F93C9
:1005E0008F939F93AF93BF93EF93FF93E09162003C
:1005F000F0916300309709F00995FF91EF91BF9159
:10060000AF919F918F917F916F915F914F913F91AA
:100610002F910F900FBE0F901F9018951F920F9261
:100620000FB60F9211242F933F934F935F936F93C5
:100630007F938F939F93AF93BF93EF93FF93E0913B
:100640006400F0916500309709F00995FF91EF91F2
:10065000BF91AF919F918F917F916F915F914F91DA
:100660003F912F910F900FBE0F901F9018958FB74D
:1006700080688FBF0895CF93C82F40E060E080E08E
:100680000E94350140E061E080E00E94350141E0D8
:1006900062E080E00E9435016C2F81E00E940D0233
:1006A00040E062E080E00E94350181EE94E0019735
:1006B000F1F700C0000041E062E080E00E943501F7
:1006C00083EC99E00197F1F700C00000CF91089505
:1006D0008BE49DE10197F1F700C0000082E00E94E9
:1006E0003B0385EA9EE00197F1F700C0000088E334
:1006F0000E943B0389EF90E00197F1F700C00000F2
:100700008CE00E943B0389EF90E00197F1F700C075
:10071000000081E00E943B0385EA9EE00197F1F72B
:1007200000C0000086E00E943B0383EF91E0019748
:10073000F1F700C000000895CF93C82F41E060E0BA
:1007400080E00E94350140E061E080E00E943501D8
:1007500041E062E080E00E9435016C2F81E00E9460
:100760000D0240E062E080E00E94350181EE94E0FD
:100770000197F1F700C0000041E062E080E00E94D4
:10078000350183EC99E00197F1F700C00000CF91AB
:1007900008959FEF960F903170F4813019F08230F8
:1007A00031F008958FE7860F0E943B0308958FEB89
:1007B000860F0E943B030895CF92DF92EF92FF9243
:1007C0000F931F938B019C01672B682B692B31F5CD
:1007D00047C0DC01CB01880F991FAA1FBB1F6C010A
:1007E0007D01CC0CDD1CEE1CFF1CCC0CDD1CEE1CBA
:1007F000FF1CC80ED91EEA1EFB1EC901B8012AE063
:1008000030E040E050E00E94E3056C0D7D1D8E1D40
:100810009F1D022F132F242F352F04C061E070E09D
:1008200080E090E0011511052105310591F612C017
:100830002AE030E040E050E00E94E305E22EF32E93
:10084000042F152F80E3860F0E949C036E2D7F2DB1
:10085000802F912F613071058105910549F703C003
:1008600080E30E949C031F910F91FF90EF90DF9017
:10087000CF9008958091710090917200A0917300C3
:10088000B09174000196A11DB11D809371009093E9
:100890007200A0937300B093740088349105A10591
:1008A000B10578F0109271001092720010927300EE
:1008B0001092740010926C0010926B0080E00E9405
:1008C000A90580916600909167000196909367005A
:1008D00080936600873991056CF080916800909153
:1008E00069000196909369008093680010926700F8
:1008F00010926600089580916C00813009F075C0F7
:1009000080916B0081110EC01092710010927200E4
:1009100010927300109274000E94A90581E08093E8
:100920006B0008950E94B005282F80936A00809183
:10093000710090917200A0917300B0917400BA2F71
:10094000A92F982F8827BC01CD01620F711D811D31
:10095000911D2AE330E040E050E00E94E30520933F
:100960006D0030936E0040936F005093700042E82A
:1009700050E060E082E00E94CA0141E850E061E09E
:1009800082E00E94CA018091810090E0880F991F47
:1009900020918200822B209168003091690082179B
:1009A000930759F4220F331FF901E758FF4F809145
:1009B0006D0090916E009183808383EC99E00197A4
:1009C000F1F700C0000010926B0089EF90E00197F2
:1009D000F1F700C0000010926C00109271001092AC
:1009E0007200109273001092740008950E944900E2
:1009F0000E9437036BE774E080E00E94AE0262E081
:100A000080E00E9423028AE394E00E94AB052FE37A
:100A10008DE093E0215080409040E1F700C000005D
:100A20000E9468030E94950561E081E00E94C9036D
:100A300083E50E949C038CE60E949C038FE60E9443
:100A40009C0384E70E949C0383E70E949C038DE340
:100A50000E949C0340E062E082E00E94570040E078
:100A600063E082E00E945700C0E0D0E040E062E036
:100A700082E00E94350140E063E082E00E9435019F
:100A800080916C0081112EC0809168009091690066
:100A900004972CF021961092690010926800409102
:100AA0006800417060E082E00E943501409168007A
:100AB0005091690055954795417061E082E00E9430
:100AC000350141E067E083E00E94350126E02A9588
:100AD000F1F700C040E067E083E00E94350181E06B
:100AE00080936C00C330D1050CF20DC0FC01EE0FF9
:100AF000FF1FE758FF4F208131812B30310508F06F
:100B00002196019604C080E090E0C0E0D0E08430FF
:100B1000910564F368E081E00E94C903BE01DD0F26
:100B2000880B990B0E94DC039FCF83B7877F83BF1D
:100B300083B78F7B83BF89B7816089BF12BE83B7BC
:100B4000816083BF83B78D7F83BF83B78B7F83BF74
:100B5000089582BF0895909376008093750008955C
:100B600082B708951F920F920FB60F9211242F9300
:100B70003F934F935F936F937F938F939F93AF9325
:100B8000BF93EF93FF93E0917500F0917600099584
:100B9000FF91EF91BF91AF919F918F917F916F9155
:100BA0005F914F913F912F910F900FBE0F901F902B
:100BB00018951F920F920FB60F9211240F900FBE2F
:100BC0000F901F901895A1E21A2EAA1BBB1BFD01C6
:100BD0000DC0AA1FBB1FEE1FFF1FA217B307E4071C
:100BE000F50720F0A21BB30BE40BF50B661F771F74
:100BF000881F991F1A9469F7609570958095909554
:0E0C00009B01AC01BD01CF010895F894FFCF18
:00000001FF
